:10000000C8020010FD030000990300005503000022
:10001000A9030000B9030000C903000000000000AC
:100020000000000000000000000000003903000094
:10003000D9030000000000001D030000E9030000D8
:10004000CD000000CD000000CD000000CD0000007C
:10005000CD000000B10C0000CD000000CD0000007C
:10006000E10C0000CD000000CD000000CD0000003C
:10007000CD000000CD000000CD000000CD0000004C
:10008000CD000000CD000000CD000000CD0000003C
:10009000CD000000BD0A0000CD000000CD00000032
:1000A000CD000000CD000000CD000000CD0000001C
:1000B000CD000000CD000000CD000000CD0000000C
:1000C000CD000000000000000000000000F08CB92E
:1000D00000F0D2BA7047000070B50C46064600F03A
:1000E00087FA094B094A1D682C44944202D8084AF1
:1000F000944207D20C234FF0FF35336000F080FAB2
:10010000284670BD1C60F9E7C8020010008000108E
:10011000880C00101946104600F0BABA194610466D
:1001200000F0BEBA132303604FF0FF307047132373
:1001300003604FF0FF307047132303604FF0FF3030
:1001400070470023022903608CBF00200120704704
:10015000134910B50C68002094FAA4F18442B1FA56
:1001600081F108BF4FF0FF310E4C0F4B54F82110B6
:1001700018600E4B09681A68A1F1080494420ED069
:1001800022B11079092804BF0A2010710922012028
:1001900001F8042C31F9021C054A1C60118010BDC5
:1001A0005403001068030010600300105C0300108B
:1001B00058030010082930B503791AD9082B14D830
:1001C00042791A4B00F1080453F822507DB12D6892
:1001D000856053F822502C6043F822400123144AD2
:1001E0004479A340146823431360017130BD8460D7
:1001F000F2E7082BF9D945790C4B53F825203AB191
:100200001468A2420BBF0022246843F82520146022
:10021000427953F82230002BE7D10123044C03FA32
:1002200002F2236823EA02032360DEE7680300107A
:100230005403001008B5094B1B681A79082A02D923
:100240005B79834205D900F0DEF918B10122044B35
:100250001A6008BDBDE8084000F058B85C03001003
:1002600060030010002408B500F0C2F9084B094AE9
:100270001B88094D1BB242F82340084A21461368E7
:100280002868013B1360FFF795FF2C6000F03AF8F7
:1002900058030010A80300105C0300106403001052
:1002A00013444FF0773223F0030310B51C1F43F8BB
:1002B000042C620742BF4FF08832A3F1080443F8D0
:1002C000082C4FF0807344E902030D4B002244F8E0
:1002D0000C3C0323022044E905320123224644E971
:1002E00007300B2342F8201D42F8043D013B032B4D
:1002F000FAD120466FF0020340F8443D10BD00BF24
:100300006502000000F078F901DFFEE7024A536859
:1003100043F080535360704700ED00E0EFF3098035
:1003200020E9F00F40F804ED02490968086000F088
:1003300003F800005C030010FFF70AFF04480068A0
:10034000016801C9B1E8F00F81F309880047000096
:100350005C0300100D4B0E4A0E496846904203D8CC
:10036000984201D9002102E009468D46012104206E
:100370007246024202D1EFF3088001E0EFF30980F8
:100380002DE9F00F6B4600F06FF800BF200200105F
:1003900000800010C802001008B50249042000F0D7
:1003A00057FA00BFFF1E000008B50249062000F002
:1003B0004FFA00BFEC1E000008B50249072000F00C
:1003C00047FA00BFC61C000008B50249082000F02B
:1003D0003FFA00BF0B1F000008B50249092000F0DA
:1003E00037FA00BFD81C000008B502490A2000F007
:1003F0002FFA00BFEA1C00007047704708B5FFF7EE
:10040000FBFF6A46114B1249934213D3114A124B18
:1004100012498B4211D30021114B124A934211D33E
:10042000FFF7EBFF00F045F900F048FDBDE808409C
:1004300000F0E0B943F8041BE6E752F8040F43F874
:10044000040BE6E743F8041BE8E700BFC800001010
:10045000FEE7FEE7CC200000C802001054030010A5
:1004600054030010880C00102DE9F04F9A464A4BB7
:1004700093469A6B8FB003925A6B9F6A0492DA6A22
:10048000044605921A6BDB6B06920793434B884632
:100490001A68434B9A4202D0424800F0A7FDB8F1D7
:1004A000000F4ED00025404800F0A0FD2E463F48EA
:1004B00000F09CFD39463E4800F024FD05993D487A
:1004C00000F020FD06993C4800F01CFD07993B48D0
:1004D00000F018FD3A0403D50399394800F012FDE5
:1004E0003B0603D50499374800F00CFD364800F070
:1004F0007DFD5946354800F005FDB8F1000F1BD1D0
:10050000334800F073FD3146324800F0FBFC694689
:10051000314BC91A03D54942304800F0F3FC20465C
:100520008268C36801698C4641698E46AD46514672
:1005300091E8F00F4168006801BE2949052000F0EC
:1005400087F9D4E9023008902069D4E90669099056
:10055000606919F4007F0A902248D4E9001208BFAC
:1005600004F12005CDE90C2318BF04F124050B91FB
:1005700000F03CFD089B0B9900931B48DDE90C2320
:1005800000F0C0FCDDE90912CDF8009033461748B1
:1005900000F0B8FC8BE700BF00ED00E0C8000010E1
:1005A000FEE7FEE7F81C00000E1D0000D31D000052
:1005B000DC1D0000EC1D0000FC1D00000C1E0000F6
:1005C0001C1E00002C1E00003C1E0000411E0000EE
:1005D000531E0000841E000020020010AC1E00000C
:1005E000D91E00003D1D0000581D0000951D000093
:1005F000EFF3108072B6704762B6EFF31080704769
:1006000080F310887047EFF30580C0B27047000098
:1006100008B5094B1A6958B142F004021A61FFF794
:10062000E7FFBFF34F8F30BFBDE80840FFF7E8BFDB
:1006300022F00402F2E700BF00ED00E0084A38B102
:1006400001284FF0000308D0C2F8C030184602E07D
:100650000120C2F8C000FFF7DBBFC2F8C030FAE7E4
:1006600000C00F400322034B0120C3F8C020FFF756
:10067000CFBF00BF00C00F40034B044A4FF4E1312D
:10068000002000F04DBA00BFCC020010BF090000EE
:100690000A460146014800F09DB900BFCC02001097
:1006A00010B50C460A460146002000F0EBFA204641
:1006B00010BD08B500F020F800F07AF907213220CB
:1006C00000F09AF90721342000F096F9072135202F
:1006D00000F092F90721372000F08EF9322000F067
:1006E000DFF9342000F0DCF9352000F0D9F9BDE85D
:1006F0000840372000F0D4B92022334BC3F8A021A2
:10070000D3F8A0215206FBD50322C3F8042100220E
:100710000120C3F8A821C3F8AC212C4AC3F80C016E
:10072000AA21C3F884205522C3F88C10C3F88C206A
:10073000C3F88000C3F88C10C3F88C20224A1346FB
:10074000D2F888104801FBD50321C2F88010AA21F5
:10075000C2F88C105521C2F88C10D3F8882012F002
:10076000407FFAD02322AA21C3F8A42001205522D9
:10077000C3F8AC10C3F8AC20C3F8A000C3F8AC10A9
:10078000C3F8AC20104A1346D2F8A8104905FBD58F
:100790000321C2F8A010AA21C2F8AC105521C2F85A
:1007A000AC10D3F8A82012F4407FFAD0084AC3F85E
:1007B000C4200022C3F8C8211A6822F4704242F40F
:1007C00080421A60704700BF00C00F406300050000
:1007D000DE87280408B500F0F9FA034800F092FB20
:1007E00000F0DCFA002008BD1F1F000008B500F073
:1007F0008FFAFCE71FB50024FFF7FAFE0D4B0F221E
:100800001B684FF4807102930B4B019400930B48CB
:100810000C2300F057F80A4B07221B684FF4C06105
:10082000CDE90143074B084800930C2300F04AF838
:10083000FFF768FDE0020010ED0700006C040010F7
:10084000E4020010D50700006C050010704700009E
:1008500008B50C4B0C461A6872B9012203281A60BD
:1008600003D17146084800F04DFB2146074800F0CF
:1008700049FB074800F046FBFFF7BAFEFFF7E6FF2B
:10088000FFF7F0FE6C0B0010951F0000991F000091
:10089000B51F000038B50B79082B03D90849032090
:1008A000FFF7D6FF4C7901F10802036813B98B609A
:1008B000026038BD13F8035CAC42F8D31846F4E785
:1008C000831F00000F2A2DE9F74F05468B469146FE
:1008D0009A4633D810F003030FBF0B46C3F104034D
:1008E000ED18CB1A303B23F003031AF0080F05EB89
:1008F000030419D12D6003E012600432A242FBD33D
:100900000193FFF775FE012280462749019B51F8AC
:10091000226017B2AEB10132212AF8D14046FFF76A
:100920006FFE6FF08A073BE02A46E7E70121204689
:10093000FFF740FC4046FFF763FE31E06FF015071C
:100940002EE041F822402A46DDE90C01E780FFF75E
:10095000A7FC0E9B154AA3624FF0FF33C4E907368C
:1009600013681AF0010F03F1010320606562C4F8F7
:100970002CB084F805902671C4E90266C4E90466C7
:10098000A6611360D2D10A212046FFF713FC1AF0AA
:10099000040FCFD14046FFF733FE4846FFF74AFC2D
:1009A000384603B0BDE8F08FA803001064030010C0
:1009B00008B500F063FABDE8084000F0EDB938B5BD
:1009C000054600F0D6F9044605F1100000F030FAB3
:1009D000204638BDF8B504460D46164600F110070E
:1009E00032462946204600F0AFF900B1F8BD01219A
:1009F000384600F0EDF9F3E7FF28F0B546D044099A
:100A0000042C43D8234A00F01F06D2F8C43000F06B
:100A10000F0043F40043C2F8C4300123B340DB436A
:100A2000620102F1005202F51C22156840001D40CF
:100A30001560176801F00105B5403D4315600322BC
:100A40008240D2434FEA261C0CEB440C4FEA8C0543
:100A500005F1804505F530352F6817402F600E4FA2
:100A6000C1F3410505FA00F057F82C50C1F3C0015D
:100A70002A40024347F82C20084AB14052F824008B
:100A800003400020194342F82410F0BD4FF0FF301E
:100A9000FBE700BF00C00F4040C0024068C00240FA
:100AA000012200F0E00303F1005300F01F0003F502
:100AB0001C2302FA00F09861704700002DE9F8430A
:100AC00000274FF00109134DDFF85080AE686868C9
:100AD000A96A06436A6A0E43164309FA07F43442C8
:100AE0000BD008EBC703586858F837209047EB68DD
:100AF0002343EB60EB6A1C43EC620137202FECD1FF
:100B0000054B1B681BB1BDE8F843FFF7FFBBBDE811
:100B1000F88300BF8080024060030010700B00105B
:100B200030B520B101284CD04FF0FF308DE0B1F549
:100B3000E13F40F098804D49D1F8C44044F00804AA
:100B4000C1F8C440D1F8A84124F0C004C1F8A841BC
:100B50008321474C21730D212071217001212172C5
:100B600044490D6825F030050D600D6845F010050D
:100B70000D600D6C25F030050D640D6C45F0200501
:100B80000D640D6825F0C0050D600D6845F0400549
:100B90000D600D6C25F0C0050D640D6C45F08005F1
:100BA0000D64217B01F07F012173334941F830202E
:100BB00001EBC0014B6000283CD0012846D000204A
:100BC00043E0B1F5E13F4ED12849D1F8C44044F0AB
:100BD0000074C1F8C440D1F8AC4124F44024C1F8F9
:100BE000AC418321254C2173002121710D212170FD
:100BF000204920720D6825F003050D600D6845F051
:100C000002050D600D6C25F003050D640D6C45F0BB
:100C100002050D640D6825F00C050D600D6845F0AA
:100C200008050D600D6C25F00C050D640D6C45F08C
:100C30000805B5E70822124B83F8052320221A6025
:100C40000B4A536843F00103536030BD08220C4B3C
:100C500083F808234FF480721A60084A536843F0FF
:100C600001035360ABE76FF00100EEE700C00F40F7
:100C700000C0004000C00240700C001000C00940DD
:100C800000E100E030B1012803D1074B0A44914252
:100C900002D17047054BF9E7187D8006FCD511F8A5
:100CA000010B1870F3E700BF00C0094000C000400E
:100CB00008B5084B1A7DD20704D51978064BD3E93D
:100CC00000209047054B1B681BB1BDE80840FFF7AB
:100CD0001DBB08BD00C00040700C00106003001078
:100CE00008B5084B1A7DD20704D51978064BD3E90D
:100CF00002209047054B1B681BB1BDE80840FFF779
:100D000005BB08BD00C00940700C00106003001056
:100D1000F8B50C4D2E6816F47F4F11D1F4B20034A3
:100D200018BF0124FFF764FC2B6807469E4202D1DE
:100D30002046FFF783FC3846BDE8F840FFF760BC6B
:100D40000224EFE7E802001070B514461CB1856874
:100D5000C3689D4201D1101B70BD86680568731C75
:100D600083604368013C013B3340EB5C01F8013B8D
:100D7000ECE7C26830B584684368121B9A4208D019
:100D8000C2680468551CC5600020013B1340E15453
:100D900030BD4FF0FF30FBE77047000008B5064854
:100DA00000F024F90549064800F0ACF8054906486A
:100DB00000F0A8F8002008BDC31F0000D01F0000ED
:100DC000E31F00000B20000013200000704700000C
:100DD00070B504460D46FFF70BFC236806463BB989
:100DE0004FF0FF332360FFF70BFC0125284670BD51
:100DF000C5B10E4B02211D682846FFF7DBF92368B9
:100E000001330AD105F1080323600023AB603046AB
:100E1000FFF7F6FBFFF77AFAE7E729462046FFF7E8
:100E200039FDF4E7FFF7ECFBE0E700BF5C030010DF
:100E300070B50446FFF7DCFB256806461DB9BDE822
:100E40007040FFF7DDBB6B1C02D100232360F6E787
:100E5000284650F808390A212360FFF7ABF92368C8
:100E600013B94FF0FF33236015F8034C3046FFF7FA
:100E7000C7FB2046BDE87040FFF7DCB90C4B0D4ABC
:100E800010B59A60082200210B4C83F82220DA77F3
:100E900060180131232980F80023F9D11A6942F042
:100EA00010021A615A6942F400725A6110BD00BF03
:100EB00000ED00E00000000000E100E070B500255A
:100EC0000C4E0D4CA41BA410A54209D1FFF700F94C
:100ED00000250A4E0A4CA41BA410A54205D170BDE2
:100EE00056F8253098470135EEE756F825309847F3
:100EF0000135F2E7D0200000D0200000D020000013
:100F0000D02000000FB40A4B13B51C6824B1A369AC
:100F100013B9204600F022FA05AB049AA1682046D6
:100F2000019300F0DFFB02B0BDE8104004B0704751
:100F3000EC02001070B50E46054618B183690BB976
:100F400000F00CFAAB69AC6813B9284600F006FA59
:100F5000234B9C4217D16C68A3891B071DD52369BD
:100F6000DBB1013EA36816F8011F013BA360E9B99C
:100F7000002B2EDA22460A21284600F03FF80130E5
:100F800011D00A2011E0174B9C4201D1AC68E3E775
:100F9000154B9C4208BFEC68DEE72146284600F06E
:100FA0007FF80028DDD04FF0FF3070BD002B04DA51
:100FB000A2699A4206DC0A2904D023685A1C2260DE
:100FC0001970CFE72246284600F018F80130C9D141
:100FD000E9E70A2023685A1C22601870E5E700BF81
:100FE0005C2000007C2000003C200000024B0146F9
:100FF0001868FFF79FBF00BFEC020010F8B50E465F
:101000001446054618B183690BB900F0A7F9214BC6
:101010009C422AD16C68A369A360A3891A072ED5C4
:10102000236963B323692068F6B2C01A636937463F
:10103000834204DC2146284600F026F928BBA36839
:101040000130013BA36023685A1C22601E70636953
:10105000834204D0A389DB0719D50A2E17D1214674
:10106000284600F011F990B10FE00B4B9C4201D1E2
:10107000AC68D0E7094B9C4208BFEC68CBE721463F
:10108000284600F00DF80028CCD04FF0FF37384646
:10109000F8BD00BF5C2000007C2000003C20000068
:1010A000324B70B51D6806460C4625B1AB6913B9C5
:1010B000284600F053F92E4B9C420FD16C68B4F9CE
:1010C0000C309AB215072CD4D00611D40922326004
:1010D00043F04003A3814FF0FF303EE0254B9C429C
:1010E00001D1AC68EBE7244B9C4208BFEC68E6E713
:1010F000510712D5616B41B104F14403994202D00A
:10110000304600F021FA00236363A38923F024030F
:10111000A3810023636023692360A38943F008034C
:10112000A38123694BB9A38903F42073B3F5007F2E
:1011300003D02146304600F0BFF9A28912F0010326
:101140000CD00023A36063695B42A361236953B998
:10115000B4F90C3013F08000BAD170BD920758BFBB
:101160006369A360F2E70020F7E700BFEC0200101C
:101170005C2000007C2000003C2000008A892DE9D2
:10118000F041054610070C4658D44B68002B05DC8F
:101190000B6C002B02DC0020BDE8F081E66A002E1B
:1011A000F9D0002312F480522F68216A2B6032D0CC
:1011B000606DA3895A0705D56368C01A636B0BB1CC
:1011C000236CC01A00230246E66A216A2846B0470B
:1011D000431CA38906D129681D2948D8294ACA4039
:1011E000D60744D5002262602269D904226004D562
:1011F000421C01D12B6803B96065616B2F60002927
:10120000C9D004F14403994202D0284600F09CF969
:1012100000206063C0E701232846B047411CC8D1C5
:101220002B68002BC5D01D2B01D0162B01D12F60B0
:10123000B1E7A38943F04003A381ADE70F69002F15
:10124000A9D0930718BF00230E6808BF4B69A6EB0F
:1012500007080F608B60B8F1000F9CDD43463A46EB
:10126000216A2846A66AB047002806DCA38943F015
:101270004003A3814FF0FF308EE70744A8EB00083E
:10128000E9E700BF0100402038B50B6905460C4670
:10129000DBB118B183690BB900F060F80C4B9C42CC
:1012A00009D16C68B4F90C307BB121462846BDE801
:1012B0003840FFF763BF074B9C4201D1AC68F1E7B0
:1012C000054B9C4208BFEC68ECE7002038BD00BF2E
:1012D0005C2000007C2000003C200000002310B5B2
:1012E0000446C0E90033836081814366C281C0E95E
:1012F00004338361194608225C3000F01DF9054B68
:1013000024626362044BA362044BE362044B2363D5
:1013100010BD00BF211C0000431C00007B1C00000E
:101320009F1C0000014900F085B800BF8912000031
:1013300070B568254A1E55430E4605F1740100F04C
:101340004FF9044640B10021C0E900160C30A060FE
:1013500005F1680200F0F0F8204670BD836910B511
:10136000044633BBC0E912330365124B124A1B68B3
:101370008262984204BF0123836100F01FF860601D
:10138000204600F01BF8A060204600F017F800226D
:10139000E06004216068FFF7A1FF01220921A06835
:1013A000FFF79CFF02221221E068FFF797FF01235D
:1013B000A36110BD3820000025130000F8B51B4BB9
:1013C00007461E68B36913B93046FFF7C7FF4836B2
:1013D000D6E90134013B03D5336833B13668F7E70A
:1013E000B4F90C506DB16834F4E704213846FFF7C6
:1013F0009FFF30600028F1D10C2304463B6020465B
:10140000F8BD0B4B6566C4E90055A560C4E903351A
:10141000C4E905550822294604F15C0000F08CF867
:10142000C4E90D55C4E91255E9E700BF38200000B2
:101430000100FFFF2DE9F84380468946002600F1B0
:10144000480414B93046BDE8F883D4E90175013F7A
:1014500001D52468F5E7AB89012B07D9B5F90E3022
:10146000013303D029464046C84706436835EEE7B6
:1014700070B50E46B1F90E1096B0002914461D46FF
:1014800007DA00232B60B3891A0610D44FF4806367
:101490000EE06A46FEF750FE0028F2DB019A02F4E5
:1014A0007042A2F500535A425A412A60EEE74023A7
:1014B0000020236016B070BD8B8973B59D0706466A
:1014C0000C4607D504F147032360236101236361C0
:1014D00002B070BD01AB6A46FFF7CAFF009905462E
:1014E000304600F07DF848B9B4F90C309A05EFD4D5
:1014F00023F0030343F00203A381E3E70D4BB36240
:10150000A389206043F08003A381009B2061636175
:10151000019B5BB1B4F90E103046FEF712FE28B104
:10152000A38923F0030343F00103A381A3891D438F
:10153000A581CDE72513000003460244934200D164
:10154000704703F8011BF9E738B50546002943D079
:1015500051F8043C0C1F002BB8BFE41800F0B1FB9D
:101560001E4A1368104633B9636014602846BDE80C
:10157000384000F0A7BBA3420BD921686218934200
:1015800001BF1A685B685218226063600460EDE76F
:1015900013465A680AB1A242FAD919685818A042EB
:1015A0000BD120680144581882421960DED11068BE
:1015B0005268014419605A60D8E702D90C232B60A5
:1015C000D4E7206821188A4201BF116852680918BF
:1015D000216062605C60C9E738BD00BF800C00100C
:1015E00070B5CD1C25F0030508350C2D38BF0C2532
:1015F000002D064601DBA94203D90C2333600020ED
:1016000070BD00F05EFB214A1468214691B9204C60
:1016100023681BB93046FEF75FFD2060294630463F
:10162000FEF75AFD431C24D10C233046336000F0F2
:1016300049FBE4E70B685B1B18D40B2B0FD90B603D
:10164000CC18CD50304600F03DFB04F10B00231DBB
:1016500020F00700C31AD3D05A42E250D0E74B68BB
:101660008C4216BF636013600C46EBE70C4649687A
:10167000CCE7C41C24F00304A04205D0211A304654
:10168000FEF72AFD0130CFD02560DBE7800C00108B
:10169000840C0010936810B4013B002B936007DAB0
:1016A0009469A34201DB0A2902D110BCFFF7A6BC52
:1016B0001368581C10601970084610BC7047F8B5C4
:1016C00006460F461446D518AC4201D1002007E06B
:1016D0003A4614F8011B3046FFF7DCFF431CF3D1F8
:1016E000F8BD00002DE9F04F0C469DB017461D4691
:1016F000064618B183690BB9FFF730FE7C4B9C425C
:1017000058D17468A38918075ED52369002B5BD074
:101710000023099320238DF8293030234FF0010B4B
:101720008DF82A300395B846454615F8013B0BB1B4
:10173000252B54D1B8EB070A0BD053463A46214625
:101740003046FFF7BCFF013000F0C280099B5344D4
:10175000099398F80030002B00F0BA8000234FF076
:10176000FF32CDE90523049307938DF853301A9384
:10177000A846052218F8011B5E4800F094FA049B65
:1017800078BBD90644BF20228DF853201A0744BFE6
:101790002B228DF853202A782A2A2AD0A846002006
:1017A0000A25079A414611F8013B303B092B69D9BC
:1017B00060B324E0504B9C4201D1B468A2E74F4B88
:1017C0009C4208BFF4689DE721463046FFF768FC5D
:1017D00000289DD04FF0FF301DB0BDE8F08FA84627
:1017E000A2E7444A4546801A0BFA00F018430490D9
:1017F000BEE7039A111D12680391002A01DB0792CC
:1018000004E0524243F002030792049398F8003038
:101810002E2B0ED198F801302A2B38D1039B08F1DA
:1018200002081A1D1B680392002BB8BF4FF0FF334C
:101830000593334D032298F80010284600F033FA40
:1018400040B14023401B03FA00F0049B08F101085B
:101850000343049398F8001006222A4808F1010770
:101860008DF8281000F01FFA002837D0264B1BBB3C
:10187000039B073323F0070308330393099B4B446F
:10188000099350E705FB0232012088468AE70023CE
:101890000A25194608F101080593404610F8012B66
:1018A000303A092A03D9002BC3D00591C1E705FBC3
:1018B000012101238046F0E703AB00932246134B3E
:1018C00004A93046AFF30080B0F1FF3F8146D5D187
:1018D000A3895B063FF57EAF09987DE703AB0093D4
:1018E00022460A4B04A9304600F088F8ECE700BF16
:1018F0005C2000009C2000007C2000003C200000B8
:10190000A2200000A620000000000000BF1600007A
:101910002DE9F04791461F468A680B6906469342B7
:10192000B8BF1346C9F8003091F843200C46DDF8E3
:10193000208012B10133C9F800302368990642BFF4
:10194000D9F800300233C9F80030256815F00605D3
:1019500007D104F1190AE368D9F800209B1AAB42B9
:1019600029DC94F843302268003318BF0123920623
:101970002ED404F1430239463046C047013021D00D
:101980002368E56803F00603042B18BF0025D9F887
:1019900000204FF0000908BFAD1AA368226908BFF4
:1019A00025EAE5759342C4BF9B1AED181A344D45DC
:1019B0001AD1002008E00123524639463046C0477C
:1019C000013003D14FF0FF30BDE8F0870135C2E7A9
:1019D0003020E11881F843005A1C94F84510224445
:1019E000023382F84310C4E70123224639463046C9
:1019F000C0470130E6D009F10109D8E72DE9F043ED
:101A000001F1430C0C46097E85B06E291746064647
:101A100098460C9A00F0B38022D8632936D00AD8B1
:101A2000002900F0B980582900F0838004F14205B4
:101A300084F8421032E0642901D06929F6D1206887
:101A40001368050603F104012AD51B681160002BF9
:101A500003DA2D225B4284F843206F480A2239E0E2
:101A6000732900F09D8008D86F2920D07029DDD11E
:101A7000236843F02003236003E0752917D07829F9
:101A8000D4D17823654884F8453055E0136804F1D3
:101A90004205191D1B68116084F8423001238CE057
:101AA0001B6810F0400F116018BF1BB2CFE713681E
:101AB0002568181D1060280601D51B6802E068061D
:101AC000FBD51B886F2914BF0A2208225248002127
:101AD00084F843106568002DA560C0F295802168E8
:101AE00021F004012160002B3DD1002D40F08E80BB
:101AF0006546082A0BD12368DB0708D5236962688D
:101B00009A42DEBF302305F8013C05F1FF35ACEB0E
:101B100005032361CDF800803B4603AA21463046E9
:101B2000FFF7F6FE01304DD14FF0FF3005B0BDE8B4
:101B3000F083394884F84510136821681D1D1B681F
:101B400015600A060BD5CA0744BF41F02001216089
:101B50001BB9226822F0200222601022B7E74D064E
:101B600048BF9BB2EFE76546B3FBF2F102FB1133CE
:101B7000C35C05F8013D0B460029F5D1B9E71368B0
:101B80002568181D6169106028061B6801D5196059
:101B900002E06A06FBD51980002365462361B9E798
:101BA0001368191D11601D6862680021284600F045
:101BB0007AF808B1401B606063682361002384F8F1
:101BC0004330A7E723692A4639463046C0470130EB
:101BD000AAD023689B0713D4E068039B9842B8BF40
:101BE0001846A3E701234A4639463046C04701302C
:101BF0009AD00135E368039A9B1AAB42F2DCEBE71B
:101C0000002504F11909F5E7002BACD1037804F1A4
:101C1000420584F842306CE7AD200000BE20000091
:101C200010B50C46B1F90E10FEF774FA0028ABBFE0
:101C3000636DA3891B1823F48053ACBF6365A38134
:101C400010BD2DE9F0411F468B890546DB050C468A
:101C5000164605D502230022B1F90E10FEF767FAE9
:101C6000A389324623F48053A381B4F90E103B4676
:101C70002846BDE8F041FEF751BA10B50C46B1F95F
:101C80000E10FEF754FA431CA38915BF606523F4B8
:101C9000805343F48053A38118BFA38110BDB1F9D1
:101CA0000E10FEF73FBA10B5C9B202449042034687
:101CB00001D1002303E01C7801308C42F6D1184694
:101CC00010BD70477047425553204641554C542033
:101CD00048414E444C4552004445425547204D4FE3
:101CE0004E2048414E444C45520044554D4D5920DC
:101CF00048414E444C4552000A4953522073746186
:101D0000636B206F766572666C6F776564005374E1
:101D100061636B20706F696E74657220636F72729D
:101D200075707465642C20726573657420746F20FF
:101D3000746F70206F6620737461636B000A436F69
:101D40006E74657874206265666F72652068617272
:101D5000646661756C743A0020202072303A20303D
:101D6000782530386C780A20202072313A2030787B
:101D70002530386C780A20202072323A20307825BD
:101D800030386C780A20202072333A2030782530A1
:101D9000386C780A0020207231323A2030782530B1
:101DA000386C780A2020206C723A20307825303840
:101DB0006C780A20202070633A2030782530386C07
:101DC000780A20207073723A2030782530386C7889
:101DD0000A0A004653522F4641523A0020434653C6
:101DE000523A2030782530386C780A002048465323
:101DF000523A2030782530386C780A002044465317
:101E0000523A2030782530386C780A002041465309
:101E1000523A2030782530386C780A00204246410A
:101E2000523A2030782530386C780A004D4D4641C2
:101E3000523A2030782530386C780A004D69736347
:101E4000004558435F5245543A2030782530386C6D
:101E5000780A00417474656D7074696E6720746FE0
:101E6000207265636F6E737472756374207374612E
:101E7000746520666F7220646562756767696E6756
:101E80002E2E2E00496E204744423A0A20207365C8
:101E900074202470633D3078256C780A20206672A7
:101EA000616D6520300A202062740A000A4953528D
:101EB00020737461636B206F766572666C6F7765F3
:101EC00064206279206174206C65617374202564DC
:101ED0002062797465732E0A0048415244204641BD
:101EE000554C542048414E444C4552004D454D20E0
:101EF0004D414E4147452048414E444C4552004ECD
:101F00004D492048414E444C4552005553414745A8
:101F1000204641554C542048414E444C4552006D9A
:101F200061696E28293A20546869732069732052C8
:101F3000494F5421202856657273696F6E3A2032DA
:101F40003031382E31302D646576656C2D35333562
:101F50002D6735373130662D4D6163426F6F6B2DC4
:101F600050726F2D76616E2D4261732E6C6F6361BE
:101F70006C2D48454144290A0069646C65006D6117
:101F8000696E004641494C454420415353455254E3
:101F9000494F4E2E0025700A002A2A2A2052494F06
:101FA00054206B65726E656C2070616E69633A0ACD
:101FB00025730A0A002A2A2A2068616C7465642E37
:101FC0000A0A0048656C6C6F20576F726C642100C0
:101FD000736565656475696E6F5F617263682D70A6
:101FE000726F00596F75206172652072756E6E692F
:101FF0006E672052494F54206F6E2061286E292051
:10200000257320626F6172642E0A006C7063313731
:102010003638005468697320626F617264206665A7
:102020006174757265732061286E29202573204DB7
:1020300043552E0A00000000F002001000000000CE
:102040000000000000000000000000000000000090
:102050000000000000000000000000000000000080
:102060000000000000000000000000000000000070
:102070000000000000000000000000000000000060
:102080000000000000000000000000000000000050
:10209000000000000000000000000000232D302B95
:1020A0002000686C4C006566674546470030313259
:1020B00033343536373839414243444546003031B0
:1020C000323334353637383961626364656600000F
:1020D0008C0C00102C0400104000000000000000D8
:1020E0000000000000000000791F00007E1F0000BB
:1020F00001010101F0020010000000005C2000005E
:102100007C2000003C2000000000000000000000D7
:1021100000000000000000000000000000000000BF
:1021200000000000000000000000000000000000AF
:10213000000000000000000000000000000000009F
:10214000000000000000000000000000000000008F
:0C2150000000000000000000282100003A
:04000003000003FDF9
:00000001FF
