:040000051A047E1D3E
:020000041A00E0
:10000000008000101D7E041A4D7E041AF57E041A2D
:10001000FD7E041A057F041A0D7F041A9287E453AB
:10002000000000000000000000000000617E041AD3
:10003000597E041A00000000CB7E041ADB7E041AED
:100040005F7E041A000000005F7E041A00000000BA
:100050005F7E041A5F7E041A5F7E041A5F7E041AB4
:100060005F7E041A5F7E041A5F7E041A5F7E041AA4
:100070005F7E041A5F7E041A5F7E041A5F7E041A94
:100080005F7E041A5F7E041A5F7E041A5F7E041A84
:10009000000000005F7E041A5F7E041A5F7E041A6F
:1000A0005F7E041A5F7E041A5F7E041A5F7E041A64
:1000B0005F7E041A5F7E041A5F7E041A5F7E041A54
:1000C0005F7E041A5F7E041A5F7E041A5F7E041A44
:1000D0005F7E041A5F7E041A5F7E041A5F7E041A34
:1000E0005F7E041A5F7E041A5F7E041A5F7E041A24
:1000F00000000000000000005F7E041A5F7E041A0A
:10010000000000005F7E041A000000005F7E041AF9
:100110005F7E041A000000000000000000000000E4
:1001200000000000000000000000000000000000CF
:1001300000000000000000000000000000000000BF
:1001400000000000000000000000000000000000AF
:10015000000000000000000000000000000000009F
:10016000000000000000000000000000000000008F
:10017000000000000000000000000000000000007F
:10018000000000000000000000000000000000006F
:10019000000000000000000000000000000000005F
:1001A000000000000000000000000000000000004F
:1001B000000000000000000000000000000000003F
:1001C000000000000000000000000000000000002F
:1001D000000000000000000000000000000000001F
:1001E000000000000000000000000000000000000F
:1001F00000000000000000000000000000000000FF
:1002000000000000000000000000000000000000EE
:1002100000000000000000000000000000000000DE
:1002200000000000000000000000000000000000CE
:1002300000000000000000000000000000000000BE
:1002400000000000000000000000000000000000AE
:10025000000000000000000000000000000000009E
:10026000000000000000000000000000000000008E
:10027000000000000000000000000000000000007E
:10028000000000000000000000000000000000006E
:10029000000000000000000000000000000000005E
:1002A000000000000000000000000000000000004E
:1002B000000000000000000000000000000000003E
:1002C000000000000000000000000000000000002E
:1002D000000000000000000000000000000000001E
:1002E000000000000000000000000000000000000E
:04B4B0000000000098
:00000001FF
